:020000040800F2
:1000000000800120F50200084503000845030008B0
:1000100045030008450300084503000800000000F0
:100020000000000000000000000000004503000880
:1000300045030008000000004503000845030008D0
:1000400000000000450300084503000845030008C0
:100050004503000845030008450300084503000860
:100060004503000845030008450300084503000850
:100070004503000845030008450300084503000840
:100080004503000845030008450300080000000080
:100090000000000000000000000000004503000810
:1000A0004503000845030008450300084503000810
:1000B0004503000845030008450300084503000800
:1000C00045030008450300084503000845030008F0
:1000D0004503000845030008450300080000000030
:1000E0004503000845030008450300080000000020
:1000F00000000000000000000000000045030008B0
:1001000000000000450300084503000845030008FF
:1001100000000000000000000000000000000000DF
:10012000450300084503000845030008450300088F
:10013000450300080000000000000000000000006F
:10014000000000000000000000000000450300085F
:10015000450300084503000845030008450300085F
:1001600045030008450300080000000000000000EF
:10017000000000000000000000000000000000007F
:10018000000000000000000000000000000000006F
:04019000450300081B
:1001940010B5054C237833B9044B13B10448AFF3BD
:1001A40000800123237010BD000000200000000027
:1001B4009003000808B5034B1BB103490348AFF390
:1001C400008008BD00000000040000209003000827
:1001D40080B500AF214B1B6B204A43F0010313632E
:1001E4001E4B1B6C1D4A43F0010313641C4B1B681C
:1001F4001B4A23F470531360194B1B68184A43F4C9
:10020400A0531360164B1B68154A23F00C031360AC
:10021400134B1B68124A43F008031360104B1B6A0C
:100224000F4A23F0F00313620D4B1B6A0C4A43F090
:100234001003136200F016F8094B5B69084A43F097
:100244006003536100F03DF8054B5B69044A23F0F9
:100254006003536100F035F800BFEDE70038024059
:100264000000024080B400AF4FF080430522DA6200
:100274004FF0804300225A624FF080439B684FF056
:10028400804223F0070393604FF080439B684FF054
:10029400804243F0070393604FF080439B684FF024
:1002A400804243F0600393604FF080431B684FF03B
:1002B400804243F00103136000BFBD465DF8047B38
:1002C400704780B400AF00BF4FF080431B6903F058
:1002D4000103002BF8D04FF080431B694FF080429C
:1002E40023F00103136100BFBD465DF8047B704732
:1002F4000D488546AFF300800C480D490D4A002394
:1003040002E0D458C4500433C4188C42F9D30A4AC6
:100314000A4C002301E013600432A242FBD300F034
:1003240011F8FFF755FFFEE70080012000000020D0
:1003340000000020B0030008000000201C00002082
:10034400FEE7000070B50D4D0D4C641BA410002693
:10035400A64209D10B4D0C4C00F018F8641BA410F4
:100364000026A64205D170BD55F8043B98470136D6
:10037400EEE755F8043B98470136F2E7A803000876
:10038400A8030008A8030008AC030008F8B500BFE0
:10039400F8BC08BC9E467047F8B500BFF8BC08BC62
:0403A4009E467047BA
:0403A800B90100088F
:0403AC0095010008AF
:04000005080002F5F8
:00000001FF
